:100000000C942A000C943F000C943F000C943F0089
:100010000C943F000C943F000C943F000C943F0064
:100020000C943F000C943F000C943F000C943F0054
:100030000C943F000C943F000C943F000C943F0044
:100040000C943F000C943F000C943F000C943F0034
:100050000C943F0011241FBECFE5D8E0DEBFCDBF1A
:1000600010E0A0E6B0E0E8EFF4E002C005900D92E9
:10007000A036B107D9F70E942F020C947A020C9493
:1000800000003E9A3F98389A3D98359A329A319AB4
:10009000309A339A379A0895369A349BFECF64B1DA
:1000A00075B144EF51E0649F9001659F300D749FDE
:1000B000300D1124232F26952695FC0120831182D3
:1000C0000895442379F1413009F05FC0813079F01F
:1000D00028F08230A9F08330E1F008952AB381E05E
:1000E00090E001C0880F6A95EAF7822B2CC027B3F5
:1000F00081E090E001C0880F6A95EAF7822B2EC05C
:1001000024B381E090E001C0880F6A95EAF7822B62
:1001100030C021B381E090E001C0880F6A95EAF712
:10012000822B32C0813089F028F08230C9F08330D0
:1001300011F108952AB381E090E001C0880F6A951B
:10014000EAF7809582238ABB089527B381E090E087
:1001500001C0880F6A95EAF78095822387BB0895CE
:1001600024B381E090E001C0880F6A95EAF780959A
:10017000822384BB089521B381E090E001C0880F01
:100180006A95EAF78095822381BB0895442379F12B
:10019000413009F05FC0813079F028F08230A9F059
:1001A0008330E1F008952BB381E090E001C0880F27
:1001B0006A95EAF7822B2CC028B381E090E001C059
:1001C000880F6A95EAF7822B2EC025B381E090E074
:1001D00001C0880F6A95EAF7822B30C022B381E014
:1001E00090E001C0880F6A95EAF7822B32C0813017
:1001F00089F028F08230C9F0833011F108952BB3D3
:1002000081E090E001C0880F6A95EAF7809582232B
:100210008BBB089528B381E090E001C0880F6A95F8
:10022000EAF78095822388BB089525B381E090E0AA
:1002300001C0880F6A95EAF78095822385BB0895EF
:1002400022B381E090E001C0880F6A95EAF78095BB
:10025000822382BB0895CF93C82F40E061E081E004
:100260000E94C60040E062E081E00E94C60040E0DB
:1002700063E081E00E94C6008BB39C2F907F8F705B
:10028000892B8BBB41E063E081E00E94C6008FE9CF
:100290009FE00197F1F700C0000040E063E081E0DB
:1002A0000E94C6002BB330E1C39FC0011124922FDE
:1002B0009F70892B8BBB41E063E081E00E94C60008
:1002C0008FE99FE00197F1F700C0000040E063E094
:1002D00081E00E94C6008FE19EE40197F1F700C023
:1002E0000000CF91089541E061E081E00E9461004B
:1002F00041E062E081E00E94610041E063E081E072
:100300000E94610041E064E080E00E94610041E001
:1003100065E080E00E94610041E066E080E00E94CC
:10032000610041E067E080E00E9461002FEF81EE14
:1003300094E0215080409040E1F700C0000083E34A
:100340000E942B0182E30E942B0188E20E942B0174
:100350008CE00E942B0181E00E942B0186E00E942C
:100360002B0182E00C942B01CF93C82F41E061E078
:1003700081E00E94C60040E062E081E00E94C60089
:1003800040E063E081E00E94C6008C2F807F8BBB41
:1003900041E063E081E00E94C6008FE99FE00197A1
:1003A000F1F700C0000040E063E081E00E94C60079
:1003B000C295C07FCBBB41E063E081E00E94C600F4
:1003C0008FE99FE00197F1F700C0000040E063E093
:1003D00081E00E94C6008FE19EE40197F1F700C022
:1003E0000000CF91089581E00C942B01EF92FF92D1
:1003F0000F931F93CF93DF93EC0197FF06C08DE21D
:100400000E94B401D195C195D10901E010E02AE024
:10041000EAE0F0E0209771F0209F7001219FF00C3E
:100420001124CE01BF010E9452028C010E0D1F1D2E
:10043000EB01F0CFC8016AE070E00E945202C0E315
:10044000C80F0130110521F08C2F0E94B401F9CFA3
:10045000DF91CF911F910F91FF90EF900895CF936F
:10046000DF9300D0CDB7DEB71A8219820E947301E4
:100470000E944E02CE0101960E9450020E94F3019A
:1004800089819A810E94F6012FEF89E698E1215037
:1004900080409040E1F700C00000ECCF0C94410098
:1004A0000C944C0097FB072E16F4009407D077FDB0
:1004B00009D00E94660207FC05D03EF49095819514
:1004C0009F4F0895709561957F4F0895AA1BBB1BA0
:1004D00051E107C0AA1FBB1FA617B70710F0A61B44
:1004E000B70B881F991F5A95A9F780959095BC0165
:0804F000CD010895F894FFCF3F
:00000001FF
